:020000040800F2
:100000000050002069160008451300084713000837
:10001000491300084B1300084D13000800000000AE
:100020000000000000000000000000004F13000866
:100030005113000800000000531300085513000876
:10004000B1160008B1160008B1160008B116000874
:10005000B1160008B1160008B1160008B116000864
:10006000B1160008B1160008B11600085D130008AB
:10007000B1160008B1160008B1160008B116000844
:10008000B1160008B1160008B1160008B116000834
:10009000B1160008B1160008B1160008B116000824
:1000A000B1160008B1160008B1160008B116000814
:1000B000B11600086D130008B1160008B11600084B
:1000C000B1160008B1160008B1160008B1160008F4
:1000D000B1160008B1160008B1160008B1160008E4
:1000E000B1160008B1160008B116000800000000A3
:1000F0000000000000000000000000000000000000
:0C01000000000000000000005FF808F1A3
:1001100081F0004102E000BF83F0004330B54FEAB8
:1001200041044FEA430594EA050F08BF90EA020F25
:100130001FBF54EA000C55EA020C7FEA645C7FEAB8
:10014000655C00F0E2804FEA5454D4EB5555B8BFDB
:100150006D420CDD2C4480EA020281EA030382EA4C
:10016000000083EA010180EA020281EA0303362DDE
:1001700088BF30BD11F0004F4FEA01314FF4801CB1
:100180004CEA113102D0404261EB410113F0004FC3
:100190004FEA03334CEA133302D0524263EB43037A
:1001A00094EA050F00F0A780A4F10104D5F1200E18
:1001B0000DDB02FA0EFC22FA05F2801841F1000173
:1001C00003FA0EF2801843FA05F359410EE0A5F147
:1001D00020050EF1200E012A03FA0EFC28BF4CF078
:1001E000020C43FA05F3C01851EBE37101F000452E
:1001F00007D54FF0000EDCF1000C7EEB00006EEB3B
:100200000101B1F5801F1BD3B1F5001F0CD34908C4
:100210005FEA30004FEA3C0C04F101044FEA44521B
:1002200012F5800F80F09A80BCF1004F08BF5FEAA2
:10023000500C50F1000041EB045141EA050130BD82
:100240005FEA4C0C404141EB0101013C28BFB1F594
:10025000801FE9D291F0000F04BF01460020B1FADF
:1002600081F308BF2033A3F10B03B3F120020CDAB2
:100270000C3208DD02F1140CC2F10C0201FA0CF090
:1002800021FA02F10CE002F11402D8BFC2F1200CF5
:1002900001FA02F120FA0CFCDCBF41EA0C019040AB
:1002A000E41AA2BF01EB0451294330BD6FEA0404F4
:1002B0001F3C1CDA0C340EDC04F11404C4F12002DF
:1002C00020FA04F001FA02F340EA030021FA04F3F1
:1002D00045EA030130BDC4F10C04C4F1200220FA48
:1002E00002F001FA04F340EA0300294630BD21FA86
:1002F00004F0294630BD94F0000F83F4801306BF4C
:1003000081F480110134013D4EE77FEA645C18BF3F
:100310007FEA655C29D094EA050F08BF90EA020FD6
:1003200005D054EA000C04BF1946104630BD91EACE
:10033000030F1EBF0021002030BD5FEA545C05D1D1
:100340004000494128BF41F0004130BD14F5800410
:100350003CBF01F5801130BD01F0004545F0FE4184
:1003600041F470014FF0000030BD7FEA645C1ABFB9
:10037000194610467FEA655C1CBF0B46024650EAF0
:10038000013406BF52EA033591EA030F41F400211C
:1003900030BD00BF90F0000F04BF0021704730B5A2
:1003A0004FF4806404F132044FF000054FF0000177
:1003B00050E700BF90F0000F04BF0021704730B538
:1003C0004FF4806404F1320410F0004548BF40420D
:1003D0004FF000013EE700BF42004FEAE2014FEA62
:1003E00031014FEA02701FBF12F07F4393F07F4F3D
:1003F00081F06051704732F07F4208BF704793F040
:100400007F4F04BF41F40021704730B54FF4607452
:1004100001F0004521F000411CE700BF50EA010255
:1004200008BF704730B54FF000050AE050EA0102FE
:1004300008BF704730B511F0004502D5404261EB6E
:1004400041014FF4806404F132045FEA915C3FF4AF
:10045000D8AE4FF003025FEADC0C18BF03325FEA4C
:10046000DC0C18BF033202EBDC02C2F1200300FAFD
:1004700003FC20FA02F001FA03FE40EA0E0021FA22
:1004800002F11444BDE600BF4FEA4102B2F1E0437D
:1004900024BFB3F5001CDCF1FE5C0DD901F0004C6B
:1004A0004FEAC0024CEA5070B2F1004F40EB8300BB
:1004B00008BF20F00100704711F0804F21D113F1E7
:1004C0003872BCBF01F00040704741F480114FEA20
:1004D0005252C2F11802C2F1200C10FA0CF320FAA9
:1004E00002F018BF40F001004FEAC1234FEAD323C6
:1004F00003FA0CFC40EA0C0023FA02F34FEA430330
:10050000CCE77FEA625307D150EA01331EBF4FF0B8
:10051000FE4040F44000704701F0004040F0FE40D3
:1005200040F40000704700BF80F0004002E000BFD0
:1005300081F0004142001FBF5FEA410392EA030FCE
:100540007FEA226C7FEA236C6AD04FEA1262D2EB18
:100550001363C1BFD218414048404140B8BF5B421D
:10056000192B88BF704710F0004F40F4000020F0B6
:100570007F4018BF404211F0004F41F4000121F0CC
:100580007F4118BF494292EA030F3FD0A2F1010216
:1005900041FA03FC10EB0C00C3F1200301FA03F154
:1005A00000F0004302D5494260EB4000B0F5000F77
:1005B00013D3B0F1807F06D340084FEA310102F136
:1005C0000102FE2A51D2B1F1004F40EBC25008BFE8
:1005D00020F0010040EA03007047490040EB0000B2
:1005E000013A28BFB0F5000FEDD2B0FA80FCACF1B3
:1005F000080CB2EB0C0200FA0CF0AABF00EBC250E0
:1006000052421843BCBFD0401843704792F0000FCD
:1006100081F4000106BF80F400000132013BB5E720
:100620004FEA41037FEA226C18BF7FEA236C21D096
:1006300092EA030F04D092F0000F08BF08467047FB
:1006400090EA010F1CBF0020704712F07F4F04D1C9
:10065000400028BF40F00040704712F100723CBFDC
:1006600000F50000704700F0004343F0FE4040F406
:10067000000070477FEA226216BF08467FEA2363C4
:100680000146420206BF5FEA412390EA010F40F4AF
:10069000800070474FF0000304E000BF10F00043FB
:1006A00048BF40425FEA000C08BF704743F09643E2
:1006B00001464FF000001CE050EA010208BF7047FD
:1006C0004FF000030AE000BF50EA010208BF704784
:1006D00011F0004302D5404261EB41015FEA010C99
:1006E00002BF84460146002043F0B64308BFA3F191
:1006F0008053A3F50003BCFA8CF2083AA3EBC25373
:1007000010DB01FA02FC634400FA02FCC2F1200291
:10071000BCF1004F20FA02F243EB020008BF20F0C8
:100720000100704702F1200201FA02FCC2F120022E
:1007300050EA4C0021FA02F243EB020008BF20EA23
:10074000DC7070474FF0FF0C1CEAD0521EBF1CEA51
:10075000D15392EA0C0F93EA0C0F6FD01A4480EA3F
:10076000010C400218BF5FEA41211ED04FF0006328
:1007700043EA501043EA5111A0FB01310CF0004054
:10078000B1F5000F3EBF490041EAD3715B0040EA7A
:10079000010062F17F02FD2A1DD8B3F1004F40EB4A
:1007A000C25008BF20F00100704790F0000F0CF01D
:1007B000004C08BF49024CEA502040EA51207F3AE1
:1007C000C2BFD2F1FF0340EAC250704740F40000BC
:1007D0004FF00003013A5DDC12F1190FDCBF00F0AD
:1007E00000407047C2F10002410021FA02F1C2F15B
:1007F000200200FA02FC5FEA310040F1000053EAF7
:100800004C0308BF20EADC70704792F0000F00F044
:10081000004C02BF400010F4000F013AF9D040EA4A
:100820000C0093F0000F01F0004C02BF490011F4DE
:10083000000F013BF9D041EA0C018FE70CEAD153DC
:1008400092EA0C0F18BF93EA0C0F0AD030F0004C5C
:1008500018BF31F0004CD8D180EA010000F0004010
:10086000704790F0000F17BF90F0004F084691F0CE
:10087000000F91F0004F14D092EA0C0F01D1420208
:100880000FD193EA0C0F03D14B0218BF084608D1D1
:1008900080EA010000F0004040F0FE4040F400001B
:1008A000704740F0FE4040F4400070474FF0FF0CAE
:1008B0001CEAD0521EBF1CEAD15392EA0C0F93EAF5
:1008C0000C0F69D0A2EB030280EA010C49024FEA47
:1008D000402037D04FF0805343EA111143EA101300
:1008E0000CF000408B4238BF5B0042F17D024FF4B8
:1008F000000C8B4224BF5B1A40EA0C00B3EB510F93
:1009000024BFA3EB510340EA5C00B3EB910F24BF7B
:10091000A3EB910340EA9C00B3EBD10F24BFA3EB00
:10092000D10340EADC001B0118BF5FEA1C1CE0D1C8
:10093000FD2A3FF650AF8B4240EBC25008BF20F07B
:10094000010070470CF0004C4CEA50207F32C2BFCF
:10095000D2F1FF0340EAC250704740F400004FF06C
:100960000003013A37E792F0000F00F0004C02BF9D
:10097000400010F4000F013AF9D040EA0C0093F067
:10098000000F01F0004C02BF490011F4000F013BC1
:10099000F9D041EA0C0195E70CEAD15392EA0C0F29
:1009A00008D142027FF47DAF93EA0C0F7FF470AF61
:1009B000084676E793EA0C0F04D14B023FF44CAFA4
:1009C00008466EE730F0004C18BF31F0004CCAD139
:1009D00030F000427FF45CAF31F000437FF43CAF75
:1009E0005FE700BF4FF0FF3C06E000BF4FF0010C97
:1009F00002E000BF4FF0010C4DF804CD4FEA400279
:100A00004FEA41037FEA226C18BF7FEA236C11D0C2
:100A100001B052EA530C18BF90EA010F58BFB2EB75
:100A2000030088BFC81738BF6FEAE17018BF40F0F5
:100A3000010070477FEA226C02D15FEA402C05D1A9
:100A40007FEA236CE4D15FEA412CE1D05DF8040B2E
:100A5000704700BF844608466146FFE70FB5FFF7C1
:100A6000C9FF002848BF10F1000F0FBD4DF808ED79
:100A7000FFF7F4FF0CBF012000205DF808FB00BF6A
:100A80004DF808EDFFF7EAFF34BF012000205DF8C4
:100A900008FB00BF4DF808EDFFF7E0FF94BF012011
:100AA00000205DF808FB00BF4DF808EDFFF7D2FF0E
:100AB00094BF012000205DF808FB00BF4DF808ED51
:100AC000FFF7C8FF34BF012000205DF808FB00BF1E
:100AD00042000ED2B2F1FE4F0BD34FF09E03B3EBA8
:100AE000126209D44FEA002343F0004323FA02F0D4
:100AF00070474FF00000704712F1610F01D14202C0
:100B000002D14FF0FF3070474FF00000704700BF38
:100B100070B54FF0FF0C4CF4E06C1CEA11541DBF93
:100B20001CEA135594EA0C0F95EA0C0F00F0DEF85E
:100B30002C4481EA030621EA4C5123EA4C5350EA43
:100B4000013518BF52EA033541F4801143F4801394
:100B500038D0A0FB02CE4FF00005E1FB02E506F025
:100B60000042E0FB03E54FF00006E1FB03569CF07A
:100B7000000F18BF4EF0010EA4F1FF04B6F5007F80
:100B800064F5407404D25FEA4E0E6D4146EB0606F2
:100B900042EAC62141EA55514FEAC52040EA5E507B
:100BA0004FEACE2EB4F1FD0C88BFBCF5E06F1ED825
:100BB000BEF1004F08BF5FEA500E50F1000041EB5C
:100BC000045170BD06F0004646EA010140EA020009
:100BD00081EA0301B4EB5C04C2BFD4EB0C0541EA2B
:100BE000045170BD41F480114FF0000E013C00F340
:100BF000AB8014F1360FDEBF002001F0004170BD64
:100C0000C4F10004203C35DA0C341BDC04F114047C
:100C1000C4F1200500FA05F320FA04F001FA05F208
:100C200040EA020001F0004221F0004110EBD370D5
:100C300021FA04F642EB06015EEA430E08BF20EA01
:100C4000D37070BDC4F10C04C4F1200500FA04F3A4
:100C500020FA05F001FA04F240EA020001F0004136
:100C600010EBD37041F100015EEA430E08BF20EAA9
:100C7000D37070BDC4F1200500FA05F24EEA020EF1
:100C800020FA04F301FA05F243EA020321FA04F020
:100C900001F0004121FA04F220EA020000EBD370D7
:100CA0005EEA430E08BF20EAD37070BD94F0000FD7
:100CB0000FD101F00046400041EB010111F4801F0B
:100CC00008BF013CF7D041EA060195F0000F18BFBC
:100CD000704703F00046520043EB030313F4801FF8
:100CE00008BF013DF7D043EA0603704794EA0C0FB2
:100CF0000CEA135518BF95EA0C0F0CD050EA4106C8
:100D000018BF52EA4306D1D181EA030101F0004144
:100D10004FF0000070BD50EA410606BF104619466C
:100D200052EA430619D094EA0C0F02D150EA013678
:100D300013D195EA0C0F05D152EA03361CBF1046B9
:100D400019460AD181EA030101F0004141F0FE4158
:100D500041F470014FF0000070BD41F0FE4141F4DC
:100D6000780170BD4FF0FF3C06E000BF4FF0010C72
:100D700002E000BF4FF0010C4DF804CD4FEA410CEA
:100D80007FEA6C5C4FEA430C18BF7FEA6C5C1BD0B7
:100D900001B050EA410C0CBF52EA430C91EA030F38
:100DA00002BF90EA020F0020704710F1000F91EA95
:100DB000030F58BF994208BF90422CBFD8176FEA63
:100DC000E37040F0010070474FEA410C7FEA6C5C31
:100DD00002D150EA013C07D14FEA430C7FEA6C5C38
:100DE000D6D152EA033CD3D05DF8040B704700BF64
:100DF0008446104662468C461946634600E000BFB2
:100E000001B5FFF7B7FF002848BF10F1000F01BD83
:100E10004DF808EDFFF7F4FF0CBF012000205DF84E
:100E200008FB00BF4DF808EDFFF7EAFF34BF0120D3
:100E300000205DF808FB00BF4DF808EDFFF7E0FF6C
:100E400094BF012000205DF808FB00BF4DF808EDBD
:100E5000FFF7CEFF94BF012000205DF808FB00BF24
:100E60004DF808EDFFF7C4FF34BF012000205DF806
:100E700008FB00BF4FEA410212F5001215D211D54E
:100E80006FF47873B3EB625212D94FEAC12343F087
:100E9000004343EA505311F0004F23FA02F018BF09
:100EA000404270474FF00000704750EA013005D1D2
:100EB00011F0004008BF6FF0004070474FF0000095
:100EC000704700BF0348044B834202D0034B03B179
:100ED000184770471000002010000020000000009C
:100EE0000548064B1B1AD90F01EBA301491002D08C
:100EF000034B03B11847704710000020100000207A
:100F00000000000010B5064C237843B9FFF7DAFF64
:100F1000044B13B10448AFF300800123237010BDCC
:100F20001000002000000000A854000808B5054B80
:100F30001BB105490548AFF30080BDE80840FFF745
:100F4000CFBF00BF0000000014000020A85400081C
:100F500000B585B000230193029303931748184A04
:100F600002604FF4807282600122027303754FF4B5
:100F70006022C26143600223036100F0C5FCA0B996
:100F80000123019302930023039301A90B4800F06E
:100F9000EFFB68B902230193029301A9074800F00F
:100FA000E7FB40B905B05DF804FB00F0FBF8E7E7AC
:100FB00000F0F8F8EEE700F0F5F8F3E77000002035
:100FC0000024014010B586B00023029303930493DC
:100FD000059302681D4B9A4201D006B010BD04462D
:100FE00003F56C439A6942F400729A619A6902F4BB
:100FF00000720092009A9A6942F004029A619B6919
:1010000003F004030193019B06230293032303933C
:1010100002A90F4800F04CFE0E480F4B036000235E
:10102000436083608022C2604FF4007202614FF41B
:10103000006242618361C36100F062FD18B9054B33
:1010400023625C62C9E700F0ADF8F8E700240140D4
:10105000000801402C0000200800024000B583B0C9
:101060000A4B5A6942F001025A615B6903F00103BD
:101070000193019B002211460B2000F00FFD0B2075
:1010800000F01CFD03B05DF804FB00BF001002403F
:1010900010B588B000220492059206920792174B71
:1010A000996941F020019961996901F0200101914C
:1010B0000199996941F004019961996901F004016C
:1010C00002910299996941F0080199619B6903F0C5
:1010D00008030393039B0A4C0821204600F0F6FE08
:1010E000082304930123059302230693079304A97D
:1010F000204600F0DDFD08B010BD00BF001002402A
:101100000008014008B50B480B4B03600B4B4360D4
:1011100000238360C3604FF48042026143618361B6
:10112000C361036201F036F900B908BD00F03AF876
:10113000FBE700BFA000002000540040A086010093
:1011400010B586B0002302930393049305930268BD
:10115000114B9A4201D006B010BD104CA36943F068
:101160000803A361A36903F008030093009BC02355
:101170000293122303930323059302A9084800F066
:1011800097FDE36943F40013E361E36903F400139B
:101190000193019BDFE700BF0054004000100240B4
:1011A000000C014072B6FEE700B595B02822002180
:1011B0000DEB020002F0F2FE002305930693079365
:1011C00008930993019302930393049301220A92D3
:1011D0004FF480330B930E920222119212934FF42C
:1011E000E01313930AA801F031FCC8B90F2305934B
:1011F00002210691002307934FF48062089209931D
:1012000005A801F055FE68B9022301934FF400438D
:10121000039301A801F028FF30B915B05DF804FB75
:10122000FFF7C0FFFFF7BEFFFFF7BCFF30B583B08D
:1012300000F066FAFFF7B8FFFFF72AFFFFF70EFF8F
:10124000FFF786FEFFF75EFF00F044F900F098F824
:1012500000F0B4F9224B93E8030002AB03E903006A
:1012600002F050FC1F4C0021204602F0F1FA04214C
:10127000204602F0EDFA0821204602F0E9FA236840
:101280004FF461725A6300259D63DD63C82000F04E
:101290005BFA00240DE002F01BFCFFF7FFF94FF0B2
:1012A0006651FFF74FFA01462046FFF743F904461F
:1012B0000135632DEFDD0C492046FFF7F7FA0B49A6
:1012C000FFF740FA02460A4B0A490B4802F0F2FDCA
:1012D000642000F039FA094801F0FCFFFEE700BF86
:1012E000C05400083C0100200000C842DB0FC94088
:1012F000000010410000E04024020020F400002023
:1013000082B00E4B9A6942F001029A619A6902F02A
:1013100001020092009ADA6942F08052DA61DB69D8
:1013200003F080530193019B054A536823F0E06367
:1013300043F00073536002B0704700BF00100240DA
:1013400000000140FEE7FEE7FEE7FEE7FEE770472C
:101350007047704708B500F0E5F908BD08B50248C8
:1013600000F004FC08BD00BF2C00002008B50248B6
:1013700001F0E9FF08BD00BFF40000207047000045
:1013800000B587B000230293039304930593009361
:1013900001931548154A026047224260836040F27B
:1013A000E732C26003618023836102F0C3F890B921
:1013B0004FF48053029302A90B4802F0BBF968B9BD
:1013C0000023009301936946074802F0AFFA40B941
:1013D00007B05DF804FBFFF7E5FEE9E7FFF7E2FE83
:1013E000EEE7FFF7DFFEF3E7F40000200004004023
:1013F00000B583B00368B3F1804F05D0124A934221
:101400000ED003B05DF804FB03F50433DA6942F053
:101410000102DA61DB6903F001030093009BF0E74E
:101420000A4BDA6942F00202DA61DB6903F0020377
:101430000193019B002211461D2000F02FFB1D206F
:1014400000F03CFBDDE700BF00040040001002405C
:1014500010B586B0002302930393049305930368A9
:10146000B3F1804F01D006B010BD03F504339A6983
:1014700042F008029A619A6902F008020092009A0A
:101480009A6942F004029A619B6903F00403019394
:10149000019B4FF48163029302240394059402A9F3
:1014A000094800F005FC4FF40043029303940594AF
:1014B00002A9064800F0FCFB054A536843F0E063CC
:1014C00043F440735360CEE7000C01400008014034
:1014D0000000014000B58FB000230A930B930C93DA
:1014E0000D93089309930193029303930493059337
:1014F0000693079330484FF08042026043604022D9
:1015000082604FF4E162C2600361836102F012F80D
:10151000002839D14FF480530A930AA9264802F0D3
:1015200009F9002833D1244802F030F8002831D1DD
:1015300000230893099308A91F4802F0F7F960BB3C
:1015400060230193002202920392059201A91A4896
:1015500002F076F820BB04220DEB0201164802F0DF
:101560006FF800BB082201A9134802F069F8E8B936
:101570000C2201A9104802F063F8D0B90E48FFF719
:1015800067FF0FB05DF804FBFFF70CFEC2E7FFF743
:1015900009FEC8E7FFF706FECAE7FFF703FECFE73D
:1015A000FFF700FED7E7FFF7FDFDDBE7FFF7FAFDEA
:1015B000DEE7FFF7F7FDE1E73C01002008B50A4848
:1015C0000A4B03604FF4E133436000238360C36040
:1015D00003610C2242618361C36102F029FA00B900
:1015E00008BDFFF7DFFDFBE7840100200038014064
:1015F00010B586B000230293039304930593026809
:10160000174B9A4201D006B010BD03F558439A69B2
:1016100042F480429A619A6902F480420092009AF0
:101620009A6942F004029A619B6903F004030193F2
:10163000019B4FF40073029302230393032305934A
:10164000084C02A9204600F033FB4FF4806302935C
:1016500000230393049302A9204600F029FBD2E75C
:101660000038014000080140FFF788FE0B480C4994
:101670000C4A002302E0D458C4500433C4188C42EE
:10168000F9D3094A094C002301E013600432A24255
:10169000FBD302F0D3FCFFF7C9FD70470000002028
:1016A00010000020DC56000810000020E803002095
:1016B000FEE7000010B504460E4B1A784FF47A731B
:1016C000B3FBF2F30C4A1068B0FBF3F000F004FA3D
:1016D00068B90F2C01D901200AE0002221464FF001
:1016E000FF3000F0DBF9054B1C60002000E001201A
:1016F00010BD00BF040000200000002008000020F2
:1017000008B5074A136843F010031360032000F084
:10171000B3F90F20FFF7CEFFFFF7F2FD002008BD61
:1017200000200240034A1168034B1B780B441360EE
:10173000704700BFCC01002004000020014B186856
:10174000704700BFCC01002038B50446FFF7F6FF14
:101750000546B4F1FF3F02D0044B1B781C44FFF751
:10176000EDFF401BA042FAD338BD00BF04000020AB
:1017700030B482B00022019290F82420012A00F0B7
:101780008F800346012280F824204A68062A2DD83B
:101790000468606B02EB8202053A4FF01F0C0CFAF2
:1017A00002FC20EA0C000D6805FA02F202436263B3
:1017B0000A68092A38D91C68E06802EB42021E3A1E
:1017C0004FF0070C0CFA02FC20EA0C008D6805FAB9
:1017D00002F20243E2600A68103A012A34D900207A
:1017E000002283F8242002B030BC70470C2A0DD8A8
:1017F0000568286B02EB8202233A1F24944020EAFA
:1018000004000C68944020432863D1E70568E86A27
:1018100002EB8202413A1F24944020EA04000C6843
:1018200094402043E862C3E71C68206902EB42024F
:101830004FF0070C0CFA02FC20EA0C008D6805FA48
:1018400002F202432261C6E71A681648824205D0B6
:101850009A6A42F020029A620120C1E7906810F46F
:10186000000F1BD1906840F4000090600A68102AB5
:1018700001D00020B4E70C4A12680C49A1FB021207
:10188000920C02EB82025200019202E0019A013AAC
:101890000192019A002AF9D10020A1E700209FE7D8
:1018A0000220A0E7002401400000002083DE1B434B
:1018B00038B503689A6812F0010F01D1002038BDD5
:1018C00004469A6822F001029A60FFF737FF054646
:1018D00023689B6813F0010F13D0FFF72FFF431B02
:1018E000022BF5D923689B6813F0010FF0D0A36A8F
:1018F00043F01003A362E36A43F00103E3620120B3
:10190000DDE70020DBE7000000287BD070B504464F
:10191000836A002B4DD02046FFF7CAFFA36A13F05D
:10192000100369D1002867D1A26A22F4885222F0FC
:10193000020242F00202A2626268E1690A43217B6C
:1019400042EA4102A568B5F5807F02D0012D36D06C
:101950001D46267D012E35D02668716821F4694127
:10196000294371602568AE68274931401143A96059
:10197000A168B1F5807F01D0012902D12369013B23
:101980001B052568E96A21F470010B43EB622368AB
:1019900099681E4B0B409A4225D0A36A23F012038C
:1019A00043F01003A362E36A43F00103E362012002
:1019B00027E0C36280F82430FFF704FBABE74FF465
:1019C0008075C6E731B9A169013945EA413141F471
:1019D0000065C1E7A16A41F02001A162E16A41F01E
:1019E0000101E162B8E70023E362A36A23F0030385
:1019F00043F00103A36204E0A36A43F01003A3626F
:101A0000012070BD01207047FDF7E1FFFE0E1FFFB2
:101A1000002808DB0901C9B200F1604000F561400F
:101A200080F80013704700F00F000901C9B2014BA4
:101A30001954704714ED00E000B500F00700C0F144
:101A4000070CBCF1040F28BF4FF0040C031D062B3C
:101A50000FD9C31E4FF0FF3E0EFA0CF021EA000131
:101A600099400EFA03FE22EA0E0241EA02005DF8F6
:101A700004FB0023EEE70000074AD36823F4E06389
:101A80001B041B0C000200F4E060034343F0BF633F
:101A900043F40033D360704700ED00E010B5044616
:101AA000054BD868C0F30220FFF7C6FF0146204669
:101AB000FFF7AEFF10BD00BF00ED00E0002807DB20
:101AC00000F01F02400901239340024A42F82030EF
:101AD000704700BF00E100E00138B0F1807F0BD219
:101AE0004FF0E0235861054AF02182F823100020CE
:101AF000986107221A6170470120704700ED00E0ED
:101B000060B310B402460168154B0B441548A0FBA6
:101B100003031B099B001364134BD363022382F856
:101B20002130086820F47F5020F03000536894681A
:101B30002343D4682343146923435469234394699A
:101B40002343D469234303430B60002090630123A4
:101B500082F8213082F8200010BC704701207047C5
:101B6000F8FFFDBFCDCCCCCC0000024038B5C36B34
:101B70001A6804682568016C04238B40134235D031
:101B800015F0040F32D0236813F0200F03D123681F
:101B900023F0040323600368434A934214D01432B1
:101BA000934218D01432934217D01432934217D074
:101BB0001432934217D01432934202D04FF0806215
:101BC00003E04FF4800200E00422384B5A60C36AFD
:101BD00003B1984738BD4022F7E74FF48062F4E73D
:101BE0004FF48042F1E74FF48022EEE702238B406E
:101BF00013423CD015F0020F39D0236813F0200FA8
:101C000006D1236823F00A032360012380F82130E2
:101C10000368254A934214D0143293421CD01432E4
:101C200093421BD0143293421BD0143293421BD0E8
:101C30001432934202D04FF0007203E04FF40012CE
:101C400000E00222194B5A60002380F82030836A9A
:101C5000002BBFD09847BDE72022F3E74FF4007276
:101C6000F0E74FF40052EDE74FF40032EAE70823C3
:101C70008B401342AED015F0080FABD0236823F091
:101C80000E032360026CC16B012303FA02F24A6067
:101C9000836380F82130002380F82030036B002B11
:101CA00098D0984796E700BF080002400000024025
:101CB00070B582B00024A446A2E07E4DAB4210D0A5
:101CC00007D97D4DAB420CD005F58035AB4208D02D
:101CD00013E0A5F58015AB4203D005F57025AB42A6
:101CE00007D18B68002B55D0012B4ED042610824C0
:101CF00003E0A5F58015AB42F3D0BEF1FF0F4BD842
:101D000006464FEA8C0233680F25954023EA050307
:101D100004FA02F2134333604B6813F0805F6DD016
:101D2000664B9A6942F001029A619B6903F00103D4
:101D30000193019B4FEA9C02951C614B53F825606F
:101D40000CF00305AD000F23AB4026EA03065D4B04
:101D5000984228D003F58063984200F08D8003F507
:101D60008063984200F08A8003F58063984218D01F
:101D7000042319E0CC68C0E7CC680434BDE7CC6824
:101D80000834BAE7CC680C34B7E702610824B4E73A
:101D90000024B2E70424B0E7061DACF1080292006B
:101DA000B1E7032300E00023AB4033430232444D4C
:101DB00045F822304B6813F4801F61D0424A936883
:101DC00043EA0E0393604B6813F4001F5ED03E4A53
:101DD000D36843EA0E03D3604B6813F4003F5BD033
:101DE000394A536843EA0E0353604B6813F4803F4B
:101DF00058D0354A136843EA0E0313600CF1010C06
:101E00000B6833FA0CF253D0012202FA0CF203EA07
:101E1000020E32EA0303F1D14B68122B3FF64DAFAD
:101E2000122B3FF66AAF01A555F823F0E31C00081A
:101E3000751D00087F1D0008911D0008FB1C00088F
:101E4000FB1C0008FB1C0008FB1C0008FB1C000816
:101E5000FB1C0008FB1C0008FB1C0008FB1C000806
:101E6000FB1C0008FB1C0008FB1C0008FB1C0008F6
:101E7000791D0008851D0008012395E7022393E7DB
:101E8000114A936823EA0E0393609CE70E4AD368D5
:101E900023EA0E03D3609FE70B4A536823EA0E033D
:101EA0005360A2E7084A136823EA0E031360A5E70C
:101EB00002B070BD0000221000003110001002407E
:101EC0000000014000080140000401400AB1016126
:101ED000704709040161704703685A6912F4806F02
:101EE00001D1002070476FF480625A6100230363C0
:101EF000202280F83D2080F83E30026C42F004023F
:101F0000026480F83C30012070472DE9F04106461C
:101F10000C46174698463BE0FFF710FC069BC01A9C
:101F2000404502D8B8F1000F32D1012D18D03368E6
:101F30009B6924EA03039BB2B3FA83F35B099F42D4
:101F400026D100233363202286F83D2086F83E30D8
:101F5000326C42F02002326486F83C30012027E0E7
:101F600033685B6924EA03039BB2B3FA83F35B092A
:101F7000E5E733685B6924EA030C1FFA8CFCBCFAC2
:101F80008CFC4FEA5C1C674511D1B8F1FF3FC3D10F
:101F9000C4F30745012DECD033689B6924EA030C98
:101FA0001FFA8CFCBCFA8CFC4FEA5C1CEBE70020AF
:101FB000BDE8F0812DE9F84305460E469046994666
:101FC00053E01A6842F400721A602B686FF4806262
:101FD0005A6100232B63202285F83D2085F83E308E
:101FE0002A6C42F004022A6485F83C3001204AE061
:101FF000FFF7A4FBA0EB0900404502D8B8F1000FA1
:1020000033D1012F17D02B689B6926EA03039BB2BB
:10201000003B18BF012343B300232B63202285F824
:102020003D2085F83E302A6C42F020022A6485F873
:102030003C30012027E02B685B6926EA03039BB252
:10204000003B18BF0123E6E72B689C6926EA0404DD
:10205000A4B2003C18BF0124A4B12B685A6912F441
:10206000806FAED1B8F1FF3FC2D1C6F30747012F51
:10207000EAD12B685C6926EA0404A4B2003C18BFCC
:102080000124E9E70020BDE8F8830000F0B583B043
:1020900004460D4616461F46C36A082B0DD0012B79
:1020A0000BD013F5803F08D0036B122B0AD10268C6
:1020B000136843F48073136004E02268136843F4E8
:1020C000807313600097334600224FF001112046C1
:1020D000FFF71BFF80B92369B3F5804F16D1236842
:1020E00005F0FE051D613B46324613492046FFF7C9
:1020F00061FFF8B903B0F0BD23681B6813F4807F5B
:1021000002D04FF4007323640320F3E7EB1122683D
:1021100003F0060343F0F00313613B4632460749E0
:102120002046FFF747FF18B92368EDB21D61DAE7D3
:102130000120DFE70120DDE70200010008000100C7
:102140002DE9F04184B004460D4616461F46C26A8A
:1021500001680B6843F480630B60082A0DD0012AE4
:102160000BD012F5803F08D0036B112B0AD1026807
:10217000136843F48073136004E02268136843F427
:10218000807313600097334600224FF00111204600
:10219000FFF7BBFE98B92369B3F5804F19D12368C7
:1021A00045F00105EDB21D613B4632462A49204605
:1021B000FFF700FF00284CD104B0BDE8F081236890
:1021C0001B6813F4807F02D04FF400732364032054
:1021D000F2E74FEAE51808F00608236848F0F00235
:1021E0001A613B4632461D492046FFF7E3FE08B11F
:1021F0000120E1E72368EDB21D613B4632461649F6
:102200002046FFF7D7FE08B10120D5E70022039250
:10221000236859690391996903910399196841F4F5
:1022200080711960009733464FF001112046FFF787
:102230006CFE20B9226848F0F1031361B4E723680B
:102240001B6813F4807F02D04FF4007323640320D3
:10225000B2E70120B0E700BF020001000800010062
:1022600070B504460D46164623685B6913F0800F6F
:1022700021D12046FFF730FEF8B9B5F1FF3FF3D08A
:10228000FFF75CFA801BA84201D8002DECD123682F
:102290005B6913F0800FE7D100232363202284F8C9
:1022A0003D2084F83E30226C42F02002226484F803
:1022B0003C30012000E0002070BD0120FCE770B53B
:1022C00004460D46164623685B6913F0040F21D1BE
:1022D0002046FFF701FEF8B9B5F1FF3FF3D0FFF755
:1022E0002DFA801BA84201D8002DECD123685B6930
:1022F00013F0040FE7D100232363202284F83D204C
:1023000084F83E30226C42F02002226484F83C3093
:10231000012000E0002070BD0120FCE770B50446FC
:102320000D46164614E06FF010025A610023236335
:10233000202284F83D2084F83E30226C226484F808
:102340003C30012025E023685B6913F0400F10D07A
:102350002368586910F0400F1AD1586910F0100F17
:10236000E1D1FFF7EBF9801BA842ECD8002DEFD1AB
:10237000E9E700232363202284F83D2084F83E30DF
:10238000226C42F02002226484F83C30012000E0FC
:10239000002070BD002800F0CC8070B5044690F895
:1023A0003D30002B77D0242384F83D302268136819
:1023B00023F0010313602268136843F400431360A1
:1023C0002268136823F40043136000F02DFE626856
:1023D0005A4B9A4264D85A4B98428CBF002301232F
:1023E000002B40F0A8805749A1FB00318B0C2568D9
:1023F0006A6822F03F0242EA91426A6021680A6AF2
:1024000022F03F0266684D4DAE424FD80133134370
:102410000B622168CA6922F44F4222F0FF0265680C
:10242000464B9D424CD8431E6D00B3FBF5F3013380
:1024300040F6FC70034278D0C3F30B031A43CA6121
:1024400021680B6823F0C003E269206A024313434A
:102450000B6021688B6823F4034323F0FF03226998
:10246000E068024313438B602168CB6823F0FF03CD
:102470006269A06902431343CB602268136843F08A
:102480000103136000202064202384F83D30206382
:1024900084F83E0070BD80F83C30FEF751FE82E7C4
:1024A000294B98428CBF0023012399E74FF496757E
:1024B00005FB03F3254DA5FB03539B090133A6E759
:1024C000A668BEB9431E05EB450CB3FBFCF3013314
:1024D000C3F30B03B3FA83F35B0943BBC6B9431ED3
:1024E00005EB4505B3FBF5F30133C3F30B0343F4ED
:1024F0000043A3E7431E05EB850C0CEB8C0CB3FBF0
:10250000FCF30133C3F30B03B3FA83F35B09E4E792
:10251000431E05EB850505EB8505B3FBF5F301339C
:10252000C3F30B0343F4404388E7042386E7012306
:1025300084E7012070470120ACE700BFA0860100BE
:102540007F841E0083DE1B43FF083D00D34D6210D5
:102550002DE9F04385B004460F46914698460C9EFF
:10256000FFF7ECF8054694F83D00C0B2202804D0EF
:102570000227384605B0BDE8F083009519230122F3
:102580004F492046FFF7C1FC002840F0928094F8A4
:102590003C30012B00F08F80012384F83C3023680D
:1025A0001A6812F0010F03D11A6842F001021A6092
:1025B0002268136823F400631360212384F83D30FC
:1025C000102384F83E3000232364C4F82490A4F838
:1025D0002A80638D23853B4BE3622B463246394686
:1025E0002046FFF753FD0746002866D100230393DA
:1025F00023685A6903929B690393039B11E0236C40
:10260000042B01D00127B4E72268136843F4007358
:102610001360F7E72A4631462046FFF750FE0028B0
:102620002ED1238D002B36D02A4631462046FFF787
:1026300017FE0028E3D1626A236812781A61606A83
:10264000431C6362618D89B2013989B26185238D32
:10265000013B9BB223852268516911F0040FD9D048
:10266000002BD7D043781361636A01336362638DB3
:102670009BB2013B9BB26385238D013B2385C9E758
:10268000236C042B01D0012773E72268136843F4FD
:1026900000731360F7E72268136843F40073136054
:1026A000202384F83D30002384F83E3084F83C3009
:1026B0005FE702275DE702275BE7012759E700BFD5
:1026C000020010000000FFFF2DE9F04389B004462E
:1026D0000F4691469846109E00230793FFF72EF869
:1026E000054694F83D00C0B2202804D002273846A1
:1026F00009B0BDE8F08300951923012280492046E6
:10270000FFF703FC002840F07A8194F83C30012B5D
:1027100000F07781012384F83C3023681A6812F0B6
:10272000010F03D11A6842F001021A60226813688F
:1027300023F400631360222384F83D30102384F8CF
:102740003E3000232364C4F82490A4F82A80638DCB
:1027500023856C4BE3622B46324639462046FFF711
:10276000EFFC0746002840F04E81238D5BB90393B0
:1027700023685A6903929A690392039A1A6842F489
:1027800000721A60F3E0012B0FD0022B21D02268D7
:10279000136843F4806313600023069323685A6927
:1027A00006929B690693069BE1E02268136823F476
:1027B0008063136072B60023049323685A690492FD
:1027C0009A690492049A1A6842F400721A6062B616
:1027D000CDE02268136843F40063136072B60023EF
:1027E000059323685A6905929A690592059A1A68B1
:1027F00022F480621A6062B6B9E02A463146204669
:10280000FFF78CFD002840F0008123681A69636A95
:102810001A70636A01336362238D013B2385638DE4
:102820009BB2013B9BB26385A1E000953346002239
:1028300035492046FFF769FB002840F0EA8022680E
:10284000136823F48063136072B623681A69636A9D
:102850001A70636A01336362238D013B2385638DA4
:102860009BB2013B9BB26385284B1B68DB08284A5F
:10287000A2FB03231B0A03EB8303C3EBC3030793EE
:102880000799013907910799002928D023685A69C7
:1028900012F0040FF4D01A6842F400721A60236830
:1028A0001A69636A1A70636A01336362238D013B9C
:1028B0002385638D9BB2013B9BB2638562B623681F
:1028C0001A69636A1A70636A01336362238D013B7C
:1028D0002385638D9BB2013B9BB2638547E0002358
:1028E0002363202284F83D2084F83E30226C42F09D
:1028F0002002226462B684F83C300127F7E600BF6C
:10290000020010000000FFFF040001000000002092
:1029100089B5F8142A4631462046FFF7FFFC002807
:1029200079D123681A69636A1A70636A0133636232
:10293000228D013A92B22285638D9BB2013B9BB2FC
:1029400063852368596911F0040F10D0032A48D019
:1029500023681A69636A1A70636A01336362238D9C
:10296000013B2385638D9BB2013B9BB26385218D27
:1029700000293BD00329CDD801293FF43EAF0229DD
:102980007FF453AF00953346002224492046FFF7D9
:10299000BCFA00283BD172B62268136843F4007376
:1029A000136023681A69636A1A70636A0133636289
:1029B000238D013B2385638D9BB2013B9BB26385D5
:1029C00062B623681A69636A1A70636A01336362C4
:1029D000238D013B2385638D9BB2013B9BB26385B5
:1029E000C5E71A6822F480621A60B1E7202384F8F0
:1029F0003D30002384F83E3084F83C3077E60227EF
:102A000075E6022773E6012771E601276FE60127C5
:102A10006DE601276BE6012769E600BF04000100AF
:102A200082B0084B1B68084AA2FB03235B0A00FB29
:102A300003F3019300BF019B5A1E0192002BF9D1B1
:102A400002B0704700000020D34D6210002800F053
:102A5000F18170B582B00446036813F0010F2CD0E9
:102A6000994B5B6803F00C03042B1DD0964B5B68FD
:102A700003F00C03082B12D06368B3F5803F41D0FC
:102A8000002B55D103F1804303F504331A6822F477
:102A900080321A601A6822F480221A6037E08A4B6A
:102AA0005B6813F4803FE7D0874B1B6813F4003F4B
:102AB00003D06368002B00F0BF81236813F0020F7E
:102AC00075D0814B5B6813F00C0F5FD07E4B5B6859
:102AD00003F00C03082B54D02369002B00F08A80EC
:102AE0007A4B01221A60FEF729FE0546764B1B68D9
:102AF00013F0020F75D1FEF721FE401B0228F5D915
:102B000003209EE1704A136843F4803313606368C6
:102B100043B3FEF713FE05466B4B1B6813F4003FEF
:102B2000CBD1FEF70BFE401B6428F5D9032088E1CA
:102B3000B3F5A02F09D0644B1A6822F480321A60D2
:102B40001A6822F480221A60E1E703F18043A3F5BA
:102B50003C331A6842F480221A601A6842F48032C8
:102B60001A60D4E7FEF7EAFD0546574B1B6813F4DD
:102B7000003FA2D0FEF7E2FD401B6428F5D90320F8
:102B80005FE1514B5B6813F4803FA5D14E4B1B684E
:102B900013F0020F03D02369012B40F04F814A4A02
:102BA000136823F0F803616943EAC10313602368E3
:102BB00013F0080F33D0A369002B5CD0434B0122E4
:102BC000C3F88024FEF7BAFD05463F4B5B6A13F05D
:102BD000020F21D1FEF7B2FD401B0228F5D90320D8
:102BE0002FE1394A136823F0F803616943EAC1030E
:102BF0001360DCE7354B00221A60FEF79FFD0546A7
:102C0000314B1B6813F0020FD1D0FEF797FD401B2C
:102C10000228F5D9032014E10120FFF701FF236802
:102C200013F0040F00F09680274BDB6913F0805FF0
:102C300034D1254BDA6942F08052DA61DB6903F066
:102C400080530193019B0125214B1B6813F4807F66
:102C500026D0E368012B3DD0002B53D103F18043F4
:102C600003F504331A6A22F001021A621A6A22F08A
:102C700004021A6233E0154B0022C3F88024FEF7E9
:102C80005DFD0546104B5B6A13F0020FC7D0FEF7DF
:102C900055FD401B0228F5D90320D2E00025D3E7DB
:102CA0000B4A136843F480731360FEF747FD064632
:102CB000074B1B6813F4807FCBD1FEF73FFD801BD1
:102CC0006428F5D90320BCE0001002400000424215
:102CD000007000405F4A136A43F001031362E36827
:102CE00033B3FEF72BFD06465A4B1B6A13F0020F57
:102CF0002FD1FEF723FD801B41F288339842F3D990
:102D000003209EE0052B09D0524B1A6A22F00102E3
:102D10001A621A6A22F004021A62E0E74D4B1A6A3C
:102D200042F004021A621A6A42F001021A62D6E7FD
:102D3000FEF704FD0646474B1B6A13F0020F08D04E
:102D4000FEF7FCFC801B41F288339842F3D9032044
:102D500077E0E5B9E369002B72D03E4A526802F091
:102D60000C02082A56D0022B17D03B4B00221A66C1
:102D7000FEF7E4FC0446374B1B6813F0007F47D096
:102D8000FEF7DCFC001B0228F5D9032059E0314A8C
:102D9000D36923F08053D361DCE72F4B00221A66FE
:102DA000FEF7CCFC05462B4B1B6813F0007F06D0CA
:102DB000FEF7C4FC401B0228F5D9032041E0236A3A
:102DC000B3F5803F1AD023494B6823F47413226A69
:102DD000606A024313434B601F4B01221A66FEF7E1
:102DE000ADFC04461B4B1B6813F0007F0ED1FEF7B1
:102DF000A5FC001B0228F5D9032022E0154A5368E0
:102E000023F40033A1680B435360DCE7002018E093
:102E1000002016E0012B16D00E4B5B6803F48031C6
:102E2000226A914211D103F47013626A93420ED167
:102E3000002006E001207047012002E0012000E0B0
:102E4000002002B070BD0120FBE70120F9E701205E
:102E5000F7E700BF00100240000042420F4B5B68E2
:102E600003F00C02082A01D00D487047C3F38342D7
:102E70000C49885C13F4803F0BD0084B5B68C3F3AC
:102E80004043094AD35C064A02FB00F0B0FBF3F072
:102E90007047064B03FB00F0704700BF0010024074
:102EA00000127A00E4540008E054000800093D00D4
:102EB000002800F0A08070B50D460446524B1B68F8
:102EC00003F007038B420BD24F4A136823F007032A
:102ED0000B431360136803F007038B4240F08D80AF
:102EE000236813F0020F17D013F0040F04D0474AE1
:102EF000536843F4E0635360236813F0080F04D071
:102F0000424A536843F460535360404A536823F085
:102F1000F003A1680B435360236813F0010F31D015
:102F20006368012B20D0022B25D0384A126812F09A
:102F3000020F64D035494A6822F0030213434B6004
:102F4000FEF7FCFB0646314B5B6803F00C0362683E
:102F5000B3EB820F16D0FEF7F1FB801B41F28833F2
:102F60009842F0D9032045E0284A126812F4003F45
:102F7000E0D101203EE0254A126812F0007FD9D14D
:102F8000012037E0204B1B6803F00703AB420AD94E
:102F90001D4A136823F007032B431360136803F0E3
:102FA0000703AB422DD1236813F0040F06D0174A54
:102FB000536823F4E063E1680B435360236813F024
:102FC000080F07D0114A536823F46053216943EA7C
:102FD000C1035360FFF742FF0C4B5B68C3F303135D
:102FE0000B4AD35CD8400B4B18600B4B1868FEF7AC
:102FF00061FB002070BD012070470120FAE701202D
:10300000F8E70120F6E700BF002002400010024070
:10301000D05400080000002008000020014B186870
:10302000704700BF0000002008B5FFF7F7FF044B12
:103030005B68C3F30223034AD35CD84008BD00BFDA
:1030400000100240C854000808B5FFF7E7FF044B22
:103050005B68C3F3C223034AD35CD84008BD00BFFA
:1030600000100240C854000870B582B004460368DE
:1030700013F0010F36D03F4BDB6913F0805F49D16D
:103080003C4BDA6942F08052DA61DB6903F080532D
:103090000193019B0125384B1B6813F4807F3BD0C3
:1030A000344B1B6A13F4407313D0626802F440720D
:1030B0009A420ED02F4A136A23F440702F490126FA
:1030C000C1F840640026C1F84064106213F0010F9B
:1030D00036D1284A136A23F4407361680B431362A4
:1030E000002D3ED1236813F0020F06D0214A536809
:1030F00023F44043A1680B435360236813F0100F7F
:1031000034D01C4A536823F48003E1680B435360B6
:1031100000202CE00025BEE7174A136843F48073B3
:103120001360FEF70BFB0646134B1B6813F4807FFE
:10313000B6D1FEF703FB801B6428F5D9032016E007
:10314000FEF7FCFA06460B4B1B6A13F0020FC0D1C8
:10315000FEF7F4FA801B41F288339842F3D903203A
:1031600005E0D36923F08053D361BBE7002002B0B0
:1031700070BD00BF001002400070004000004242DD
:1031800030B4026A036A23F001030362456883696D
:1031900023F073030C681C4322F002028B68134374
:1031A0000B4A904206D0456084614A6842630362DC
:1031B00030BC704723F00803CA681A4322F00403A6
:1031C00025F440754A692A438D691543EBE700BF32
:1031D000002C014030B4036A026A22F48072026259
:1031E0004468C26922F073020D68154323F400732A
:1031F0008A6843EA02230D4A904206D04460C561C2
:103200004A68C263036230BC704723F40063CA6833
:1032100043EA022323F4806324F440544A6944EAD5
:1032200002148A6944EA0214E8E700BF002C014056
:1032300030B4036A026A22F4805202624468C269AE
:1032400022F4E6420D6842EA052223F400538D6819
:1032500043EA0533074DA84206D04460C2614A687C
:103260000264036230BC704724F480444D6944EA30
:103270008514F2E7002C014010B4036A046A24F0BC
:1032800001040462846924F0F00C4CEA021223F079
:103290000A030B438261036210BC704710B4036AD7
:1032A000046A24F010040462846924F4704C4CEA2B
:1032B000023223F0A00343EA01138261036210BCCF
:1032C0007047836823F070030B4343F00703836068
:1032D0007047000090F83D30DBB2012B27D102236C
:1032E00080F83D300268D36843F00103D36003687F
:1032F000114A934210D0B3F1804F0DD0A2F5943211
:10330000934209D002F58062934205D01A6842F0D8
:1033100001021A60002070479A6802F00702062A2C
:1033200007D01A6842F001021A600020704701209D
:1033300070470020704700BF002C01407047704765
:1033400070477047704710B5044603681A6912F059
:10335000020F11D0DA6812F0020F0DD06FF00202E6
:103360001A610123037703689B6913F0030F70D080
:10337000FFF7E6FF0023237723681A6912F0040F92
:1033800012D0DA6812F0040F0ED06FF004021A6146
:103390000223237723689B6913F4407F5FD0204684
:1033A000FFF7CEFF0023237723681A6912F0080F76
:1033B00012D0DA6812F0080F0ED06FF008021A610E
:1033C000042323772368DB6913F0030F4ED02046D4
:1033D000FFF7B6FF0023237723681A6912F0100F56
:1033E00012D0DA6812F0100F0ED06FF010021A61CE
:1033F000082323772368DB6913F4407F3DD0204600
:10340000FFF79EFF0023237723681A6912F0010F4C
:1034100003D0DA6812F0010F36D123681A6912F06E
:10342000800F03D0DA6812F0800F34D123681A6954
:1034300012F0400F03D0DA6812F0400F32D1236847
:103440001A6912F0200F03D0DA6812F0200F30D181
:1034500010BDFFF774FF2046FFF773FF8AE7204691
:10346000FFF76DFF2046FFF76CFF9BE72046FFF755
:1034700066FF2046FFF765FFACE72046FFF75FFFDA
:103480002046FFF75EFFBDE76FF001021A6120469C
:1034900000F066FDC1E76FF080021A61204600F07F
:1034A0007CFAC3E76FF040021A612046FFF74AFF3B
:1034B000C5E76FF020021A61204600F06DFAC7E7F9
:1034C00003681B4A90420AD0B0F1804F07D0A2F5A2
:1034D0009432904203D002F58062904203D123F0EF
:1034E00070034A681343124A90420AD0B0F1804FE9
:1034F00007D0A2F59432904203D002F58062904248
:1035000003D123F44073CA68134323F080034A694C
:10351000134303608B68C3620B688362044B984259
:1035200002D00123436170470B690363F9E700BFD1
:10353000002C014040B310B5044690F83D30F3B183
:10354000022384F83D30214651F8040BFFF7B8FF01
:10355000012384F8463084F83E3084F83F3084F804
:10356000403084F8413084F8423084F8433084F8A5
:10357000443084F8453084F83D30002010BD80F898
:103580003C30FDF735FFDBE70120704740B310B555
:10359000044690F83D30F3B1022384F83D302146D3
:1035A00051F8040BFFF78CFF012384F8463084F8B0
:1035B0003E3084F83F3084F8403084F8413084F85D
:1035C000423084F8433084F8443084F8453084F83D
:1035D0003D30002010BD80F83C30FFF7AFFEDBE748
:1035E0000120704730B4036A026A22F010020262BE
:1035F0004468826922F4E6420D6842EA052223F01B
:1036000020038D6843EA05130C4DA84206D04460A0
:1036100082614A688263036230BC704723F0800392
:10362000CD6843EA051323F0400324F440644D6958
:1036300044EA85048D6944EA8504E8E7002C0140EA
:1036400038B590F83C30012B66D004460D46012376
:1036500080F83C300C2A5AD8DFE802F00759595953
:103660001B5959593059595944000068FFF788FDD2
:103670002268936943F0080393612268936923F0F9
:10368000040393612268936929690B4393610020C5
:103690003EE00068FFF7A6FF2268936943F40063E9
:1036A00093612268936923F480639361226893692C
:1036B000296943EA01239361002029E00068FFF7AC
:1036C00089FD2268D36943F00803D3612268D36976
:1036D00023F00403D3612268D36929690B43D361C2
:1036E000002015E00068FFF7A3FD2268D36943F4CA
:1036F0000063D3612268D36923F48063D3612268B5
:10370000D369296943EA0123D361002000E0012045
:10371000002384F83C3038BD0220FCE710B48468F4
:1037200024F47F4C42EA03220A4342EA0C028260FC
:1037300010BC704790F83C30012B78D010B504468F
:10374000012380F83C30022380F83D300268936802
:1037500023F47F4323F0770393600B68602B4CD0F6
:1037600029D8402B54D00CD9502B22D1CA68496893
:103770000068FFF781FD50212068FFF7A2FD0020BF
:1037800005E0202B0DD009D9302B0AD001200123D0
:1037900084F83D30002384F83C3010BD0BB1102B71
:1037A00005D119462068FFF78CFD0020EFE70120C6
:1037B000EDE70120EBE7B3F5805F34D0B3F5005FB0
:1037C0000CD1CB684A6889680068FFF7A7FF2268B8
:1037D000936843F4804393600020D8E7702B24D192
:1037E000CB684A6889680068FFF798FF2268936889
:1037F00043F0770393600020C9E7CA68496800680E
:10380000FFF74CFD60212068FFF75BFD0020BEE75D
:10381000CA6849680068FFF72FFD40212068FFF75C
:1038200050FD0020B3E70020B1E70120AFE7022000
:10383000704701F01F014FF0010C0CFA01FC036A04
:1038400023EA0C030362036A8A401343036270474E
:1038500010B50446084651BB94F83E30DBB2013B3C
:1038600018BF0123002B5BD1002839D1022384F833
:103870003E30012201462068FFF7DBFF23682A4A19
:1038800093423DD02368284A93423ED0B3F1804F03
:103890003BD0A2F59432934237D002F58062934236
:1038A00033D01A6842F001021A60002039E004297E
:1038B00008D008290DD094F84130DBB2013B18BF85
:1038C0000123CFE794F83F30DBB2013B18BF01235F
:1038D000C8E794F84030DBB2013B18BF0123C1E7D1
:1038E000042805D0082807D0022384F84130C0E717
:1038F000022384F83F30BCE7022384F84030B8E765
:103900005A6C42F400425A64BCE79A6802F007021B
:10391000062A07D01A6842F001021A60002000E06F
:10392000012010BD0020FCE7002C014090F83C2055
:10393000012A2CD010B40346012280F83C20022238
:1039400080F83D2002685068946820F0700C086888
:1039500040EA0C0050601A680E4882420AD0B2F168
:10396000804F07D0A0F59430824203D000F58060EC
:10397000824204D124F080044968214391600122ED
:1039800083F83D20002083F83C0010BC70470220E3
:10399000704700BF002C01407047704710B50446C7
:1039A0000268136923F44053C1680B4313618368B1
:1039B0000269134342691A430168CB6823F4B05388
:1039C00023F00C031343CB600268536923F4407364
:1039D00081690B4353610268134B9A4220D0FFF771
:1039E00023FB024602EB820202EB820263689B0029
:1039F000B2FBF3F20D48A0FB02314909642303FB3B
:103A000011231B013233A0FB03035B0903F0F00217
:103A100002EB011203F00F03216813448B6010BD09
:103A2000FFF712FB0246DDE7003801401F85EB512E
:103A300060B310B5044690F8413013B3242384F8E2
:103A400041302268D36823F40053D3602046FFF747
:103A5000A5FF2268136923F4904313612268536918
:103A600023F02A0353612268D36843F40053D360E0
:103A700000206064202384F8413084F84230606381
:103A800010BD80F84030FDF7B3FDD7E70120704747
:103A900000B583B06423009393B20A4601460348FD
:103AA000FEF756FD03B05DF804FB00BFA000002048
:103AB00000B583B06423009393B20A4640F001013D
:103AC0000248FEF701FE03B05DF804FBA0000020F1
:103AD00010B582B00C238DF8073001220DF10701DB
:103AE0006C20FFF7D5FF064C022221466C20FFF721
:103AF000DFFF2078637843EA002002B010BD00BFEA
:103B0000D001002008B5012208210248FEF7DEF9A5
:103B100008BD00BF0008014008B5FCF75DFC00F0DF
:103B200061FBFCF7B1FC08BD08B5FCF755FC00F0E3
:103B300015FBFCF7A9FC08BD38B504460846E1684A
:103B4000FCF7F6FC054660600021FCF799FF28B9F8
:103B500061682068FCF7F6FDA06038BD0249284680
:103B6000FCF7E8FC6060F3E7DB0FC9402DE9F843A0
:103B7000044685682846FFF7D7FF0646D4F8149018
:103B80004946FCF7DFFD07462846FFF7C5FF054617
:103B9000D4F818804146FCF7D5FD01463846FCF7BD
:103BA000C7FCE06129464846FCF7CCFD0546414686
:103BB0003046FCF7C7FD01462846FCF7BBFC2062F7
:103BC000BDE8F8832DE9F04705460769C469D0F8D8
:103BD00020909B494846FCF7B5FD3946FCF766FE48
:103BE000064698492046FCF7ADFD04464946FCF7D9
:103BF000A1FC9349FCF7A6FD3946FCF757FE4FF0B0
:103C00007C51FCF79FFD804621464846FCF790FC1E
:103C10008B49FCF797FD3946FCF748FE4FF07C5185
:103C2000FCF790FD074604F100414846FCF728FFE9
:103C300008B34FF0010A49462046FCF73FFFE8B1C0
:103C4000012400214846FCF739FFC8B1012204EBEA
:103C50004A035B00DBB21344DBB2032B12D0013BFF
:103C6000052B00F2F580DFE813F04100F300F300CC
:103C700097006D00C0004FF0000ADCE70024E0E789
:103C80000022E4E770493846FCF754FC3146FCF763
:103C90004FFC4FF07C51FCF755FD80463946FCF750
:103CA00047FC044601463046FCF744FC06464146C4
:103CB0006548FCF73DFCFCF70BFFA88421466248F1
:103CC000FCF736FCFCF704FFE88431465E48FCF75D
:103CD0002FFCFCF7FDFE28855C4B1B68AA8C5A6301
:103CE000EA8C9A632A8DDA63BDE8F0873946564834
:103CF000FCF71EFC4146FCF71BFC4FF07C51FCF727
:103D000021FD044601463846FCF714FC06460146F0
:103D10004046FCF70FFC074631464B48FCF708FCD1
:103D2000FCF7D6FEA88421464748FCF701FCFCF7C7
:103D3000CFFEE88439464448FCF7FAFBFCF7C8FE9E
:103D40002885C9E731464048FCF7F2FB4146FCF7BD
:103D5000F1FB4FF07C51FCF7F5FC04460146304680
:103D6000FCF7E8FB06464146FCF7E2FB0146364815
:103D7000FCF7DEFBFCF7ACFEA88421463248FCF7DA
:103D8000D7FBFCF7A5FEE88431462F48FCF7D0FBB3
:103D9000FCF79EFE28859FE72B493046FCF7CAFBBF
:103DA0003946FCF7C5FB4FF07C51FCF7CBFC0446D1
:103DB0003146FCF7BDFB06463946FCF7BBFB014626
:103DC0002148FCF7B5FBFCF783FEA88431461E486A
:103DD000FCF7AEFBFCF77CFEE88421461A48FCF7B2
:103DE000A7FBFCF775FE288576E717494046FCF7E8
:103DF000A1FB3946FCF79EFB4FF07C51FCF7A2FC7F
:103E000006464146FCF794FB044601460E48FCF783
:103E10008FFBFCF75DFEA88439462046FCF788FB43
:103E200001460948FCF784FBFCF752FEE884314662
:103E30000548FCF77DFBFCF74BFE28854CE700BFEF
:103E400010DB4245D7B3DD3F0000E1443C010020D8
:103E500041461548FCF76CFB3146FCF76BFB4FF015
:103E60007C51FCF76FFC074601464046FCF762FBBD
:103E7000044639460C48FCF75BFBFCF729FEA88496
:103E800031462046FCF754FB01460748FCF750FB3F
:103E9000FCF71EFEE88421460348FCF749FBFCF7CB
:103EA00017FE288518E700BF0000E14400234361A6
:103EB0008161704730B585B01C46016000254560C2
:103EC0008560C260036107491846FCF73BFC02901D
:103ED000019400952B46044A0021044800F048F85C
:103EE00005B030BDCDCC4C3F00002041DC010020AE
:103EF00038B50446FFF7ECFDFCF7D0FB1449FCF79E
:103F000021FC4FF06651FCF71DFC01462046FFF7EF
:103F100013FE104D2868FCF75FFA0BA3D3E90023CA
:103F2000FCF7FCF8FCF7B0FA28600B4B0B4A1A6060
:103F30004FF082412046FFF7B9FF2046FFF716FEFB
:103F40002046FFF73FFE38BDEC51B81E85EBB13F70
:103F5000DB0FC940D8010020D4010020920A863F1F
:103F600008B50248FFF7C4FF08BD00BF24020020C7
:103F700098B1017042608360009BC360019B036144
:103F8000029B436100238363436303630362C36251
:103F90008362436243640364C363704770B58607FA
:103FA00047D0541E002A3ED00346CAB201E0013C6D
:103FB00039D303F8012B9D07F9D1032C2CD9CDB2AD
:103FC00005EB05250F2C1A4605EB054534D9A4F160
:103FD000100C2CF00F0603F1100EB6444FEA1C1C17
:103FE000156055609560D56010327245F8D10CF1BE
:103FF000010214F00C0F03EB021204F00F0C13D0AB
:10400000ACF1040323F003030433134442F8045BCC
:104010009A42FBD10CF003042CB1C9B21C4403F842
:10402000011B9C42FBD170BD64461346002CF4D1A9
:10403000F9E703461446C0E7A446E1E770B50F4B25
:104040000F4DAB42A3EB050607D00024B61055F880
:10405000043B01349847A642F9D801F025FA094DEE
:10406000094B5E1BAB424FEAA60606D0002455F86A
:10407000043B01349847A642F9D870BDD0560008D9
:10408000D0560008D0560008D8560008704700BF28
:10409000704700BF024B13B1024800F005B87047EB
:1040A00000000000B5400008002301461A461846EB
:1040B00000F014B838B5074D074C2C1BA41005D0E0
:1040C000013C55F8043D9847002CF9D1BDE8384033
:1040D00001F0F0B9DC560008D85600082DE9F84385
:1040E0001B4D0646286898460F469146FFF7CEFFBF
:1040F000184B1C681CB3286865681F2D22DC4EB95C
:104100006B1C0235636044F82570FFF7C1FF002087
:10411000BDE8F883012304EB8501C1F88890D4F849
:104120008821AB401A43022EC4F88821C1F80881C7
:10413000E6D1D4F88C211A43C4F88C21E0E7064C70
:104140001C60D8E7FFF7A4FF4FF0FF30E0E700BFA7
:104150000C00002054020020580200201F4A21F0C9
:10416000004393421DD930B51D4A87B0934205D90B
:1041700002460B46FBF7D0FF07B030BD02AA00F0A5
:104180005BFA00F0030001280FD002281FD0B8B15D
:10419000DDE90423DDE902010124009400F094F933
:1041A000EAE70022002300F067B80090DDE904236D
:1041B000DDE9020100F088F901F1004107B030BDEE
:1041C000DDE90423DDE9020100F056F8D4E7DDE97A
:1041D0000423DDE9020100F04FF8EDE7FB21E93FA0
:1041E000FFFFEF7F30B5224A21F00043934287B0B2
:1041F0001CD9204A934205D902460B46FBF78CFF97
:1042000007B030BD02AA00F017FA00F00300012841
:1042100014D0022822D0C0B1DDE90423DDE9020177
:1042200000F02AF801F1004107B030BD002400225F
:104230000023009400F048F907B030BDDDE9042305
:10424000DDE9020100F018F8DAE70124DDE90423D2
:10425000DDE90201009400F037F9D1E70124DDE93E
:104260000423DDE90201009400F02EF9DAE700BF33
:10427000FB21E93FFFFFEF7F2DE9F04F21F00048E0
:10428000B8F1795F06460F4692469B4685B06DD2DF
:10429000FCF7F0FD002800F0ED8032463B4630464A
:1042A0003946FCF735FC76A3D3E9002304460D46D6
:1042B000FCF72EFC74A3D3E90023FBF72FFF224663
:1042C0002B46FCF725FC72A3D3E90023FBF724FF60
:1042D00022462B46FCF71CFC6FA3D3E90023FBF717
:1042E0001DFF22462B46FCF713FC6DA3D3E90023E8
:1042F000FBF712FF22462B46FCF70AFC6AA3D3E920
:104300000023FBF70BFF22462B46FCF701FCCDE90F
:104310000001002220462946654BFCF7F9FBDDE948
:1043200000238046894620462946FCF7F1FB444697
:104330004D468046894652465B4630463946FCF734
:10434000E7FB02460B4640464946FBF7E5FE0246C0
:104350000B4620462946FBF7DFFE02460B460020AF
:104360005449FBF7D9FE05B0BDE8F08F02460B4675
:10437000FCF7CEFB42A3D3E9002304460D46FCF72D
:10438000C7FB41A3D3E90023FBF7C8FE22462B4617
:10439000FCF7BEFB3EA3D3E90023FBF7BDFE22469C
:1043A0002B46FCF7B5FB3CA3D3E90023FBF7B6FE95
:1043B00022462B46FCF7ACFB39A3D3E90023FBF7DD
:1043C000ABFE22462B46FCF7A3FB37A3D3E9002321
:1043D000FBF7A4FE2B462246FCF79AFB364BCDE9B1
:1043E0000001984595D9354B002298453AD8A8F553
:1043F000001300202F4990469946FBF78DFECDE92A
:104400000201002220462946294BFCF781FB424647
:104410004B46FBF781FEDDE90023804689462046B6
:104420002946FCF775FB44464D4680468946524670
:104430005B4630463946FCF76BFB02460B4640466E
:104440004946FBF769FE02460B4620462946FBF724
:1044500063FE02460B46DDE90201FBF75DFE05B097
:10446000BDE8F08F164B4FF00008CDE90223DFF8CE
:104470005490C6E700200F4905B0BDE8F08F00BF9B
:10448000D43888BEE9FAA8BDC4B1B4BD9EEE213EC1
:10449000AD529C804F7E923E9015CB19A001FA3E02
:1044A0007751C1166CC1563F4C5555555555A53FD2
:1044B0000000E03F0000F03F3233D33F0000E93F0F
:1044C0000000E73F0000D23F2DE9F04F83B0CDE977
:1044D000002321F00043B3F1795F04460D4604D276
:1044E000FCF7C8FC002800F0858022462B462046B9
:1044F0002946FCF70DFB06460F4632463B46204652
:104500002946FCF705FB3EA3D3E9002382468B46F0
:1045100030463946FCF7FCFA3BA3D3E90023FBF70E
:10452000FBFD32463B46FCF7F3FA39A3D3E90023FF
:10453000FBF7F4FD32463B46FCF7EAFA36A3D3E933
:104540000023FBF7E9FD32463B46FCF7E1FA34A3D2
:10455000D3E90023FBF7E2FD0C9B804689469BB321
:10456000DDE900010022324BFCF7D2FA42464B460D
:104570008046894650465946FCF7CAFA02460B4621
:1045800040464946FBF7C8FD32463B46FCF7C0FAB9
:10459000DDE90023FBF7C0FD23A3D3E90023064692
:1045A0000F4650465946FCF7B3FA02460B463046D2
:1045B0003946FBF7B3FD02460B4620462946FBF77A
:1045C000ABFD03B0BDE8F08F02460B4630463946DE
:1045D000FCF79EFA14A3D3E90023FBF79DFD524696
:1045E0005B46FCF795FA22462B46FBF797FD03B096
:1045F000BDE8F08F2046294603B0BDE8F08F00BF2C
:104600007CD5CF5A3AD9E53DEB9C2B8AE6E55A3E5C
:104610007DFEB157E31DC73ED561C119A0012A3FF8
:10462000A6F810111111813F495555555555C53FF3
:104630000000E03F000000002DE9F04F884B21F022
:1046400000479F4204460D4693468FB040F291804A
:10465000844B88469F4228D877A3D3E900230029BA
:1046600040F3A681FBF758FD7F4B04469F420D4661
:1046700000F0908072A3D3E90023FBF74DFD0246C2
:104680000B462046294614461D46FBF745FD6CA304
:10469000D3E90023FBF740FD0126CBE90045CBE938
:1046A000020130460FB0BDE8F08F704B9F4240F2E0
:1046B0008B806F4B9F4264D84FEA275AAAF2164666
:1046C000A7EB06510F4602960646FCF7D3FBFBF715
:1046D00071FE02460B4630463946CDE90823FBF70A
:1046E0001BFD0022634BFCF713FA0F460646FCF74E
:1046F000C1FBFBF75FFE02460B4630463946CDE96B
:104700000A23FBF709FD00225A4BFCF701FA0324A8
:104710004FF000094FF0000ACDE90C010EAD4A46FA
:1047200075E9020153462646013CFCF771FB00285F
:10473000F5D10224504933460191029A594608A8FE
:10474000009400F08BF9B8F1000F0646A9DADBF807
:104750000400DBF80020DBF80C1000F10043CBE98B
:104760000023DBF8082001F10043CBE90223764265
:1047700097E700220023CBE90045CBE9022300267E
:104780008FE702460B46FBF7C7FCCBE90201CBE9FA
:104790000001F4E72CA3D3E90023FBF7BDFC2CA315
:1047A000D3E9002306460F46FBF7B6FC04460D4648
:1047B00022462B4630463946FBF7AEFC24A3D3E90C
:1047C0000023FBF7A9FC67E700F044F922A3D3E933
:1047D000002304460D46FCF79BF90022274BFBF70C
:1047E0009DFCFCF747FB0646FBF7E4FD02460B4643
:1047F000CDE9042310A3D3E90023FCF789F902468D
:104800000B4620462946FBF787FC0DA3D3E900237E
:1048100081468A46DDE90401FCF77AF91F2ECDE9CD
:1048200002012FDC164B721E53F82230BB4229D0F6
:1048300002460B469AE000BF00004054FB21F93FBE
:104840003163621A61B4D03D0000601A61B4D03D9A
:104850007370032E8A19A33B83C8C96D305FE43F90
:10486000FB21E93F7BD90240FB21F93FFB21394184
:10487000FFFFEF7F00007041745500080000E03F2B
:10488000F45400083B1507934846DDE902235146DE
:10489000FBF742FCC1F30A53C3EB1753102B04463A
:1048A0000D4669DD60A3D3E90023DDE90401FCF7CF
:1048B0002FF904460D4622462B4648465146FBF743
:1048C0002BFC02460B464846514691469A46FBF75A
:1048D00023FC22462B46FBF71FFC55A3D3E90023FC
:1048E00004460D46DDE90401FCF712F922462B4689
:1048F000FBF712FC02460B4648465146CDE902231F
:10490000FBF70AFC079AC1F30A53D31A312B04466A
:104910000D4631DD48A3D3E90023DDE90401FCF7AE
:10492000F7F804460D4622462B4648465146FBF70B
:10493000F3FB02460B464846514691469A46FBF722
:10494000EBFB22462B46FBF7E7FB3DA3D3E9002315
:1049500004460D46DDE90401FCF7DAF822462B4651
:10496000FBF7DAFB02460B46CDE9022348465146E7
:10497000FBF7D2FB04460D4622462B4648465146DD
:10498000CBE90045FBF7C8FBDDE90223FBF7C4FBDD
:10499000B8F1000FCBE90201BFF683AE05F100428A
:1049A000CBE9004201F10042CBE90202764278E60F
:1049B000FBF7B4FB264B04469F420D4618D022A3BA
:1049C000D3E90023FBF7AAFB02460B462046294603
:1049D00014461D46FBF7A0FB1BA3D3E90023FBF7FE
:1049E0009DFB4FF0FF36CBE90045CBE9020158E6CD
:1049F0000DA3D3E90023FBF791FB0DA3D3E900231B
:104A000006460F46FBF78AFB04460D4622462B4618
:104A100030463946FBF780FB05A3D3E90023FBF7BB
:104A20007DFBDEE7AFF300800000601A61B4D03D8B
:104A30007370032E8A19A33B0000002E8A19A33B32
:104A4000C14920259A837B393163621A61B4D03D14
:104A5000FB21F93F21F00043194670472DE9F04F43
:104A6000ADF5197DBE4CA29D9E4654F82540013BF4
:104A700012F1140F824605940B910393C0F2488300
:104A8000B849D31E81FB0301DB17C3EBA1030893D5
:104A90000133A3EB8303DB00D618089A0EF1FF3332
:104AA000D71A059A12EB030921D409F10109B94477
:104AB0000DF18008029600244E460025C146DDF81F
:104AC0008CB2F04608E05BF82700FBF773FC013777
:104AD000B742E9E8020108D0002FF4DA204629465F
:104AE0000137B742E9E80201F6D1C646029E059BAE
:104AF000002BAAF108030493B8BF4FEACE0737DBB7
:104B0000DDF80C9003EBCE084B460DF5E07BD94663
:104B10009B4620AA02EBCE0A4FEACE07059ACDE9C2
:104B200006E7724402920096039B002BC0F2AA8112
:104B3000574600240025049E77E90223F6E9020186
:104B4000FBF7E6FF02460B4620462946FBF7E6FA4E
:104B5000464504460D46EFD1029B0BF1010B9B45E8
:104B6000E9E802450AF1080ADED1DDE906E7009E20
:104B7000049B059A03EB070B0CAB03EB8203043B8E
:104B800009930CAB029203EB8207CDF828E0029A5E
:104B900098AB03EBC203002A53E928452DDD0DF540
:104BA000E07A0DF130090AEBC20800960697002260
:104BB0006D4B20462946FBF7ABFFFCF75BF9FBF793
:104BC000F9FB0022694B06460F46FBF7A1FF0246A0
:104BD0000B4620462946FBF79FFAFCF74BF978E98C
:104BE000022349F8040B39463046FBF797FAD045C3
:104BF00004460D46DBD1009E069F204629463246DC
:104C000000F04AFB00224FF07F5304460D46FBF7AD
:104C10007FFF00F0C5FB0022554BFBF779FF0246F2
:104C20000B4620462946FBF777FA0D460446FCF76B
:104C300021F98246FBF7BEFB02460B462046294679
:104C4000FBF76AFA002E8046894640F39380029B68
:104C5000C6F11802581E0CAB53F8203043FA02F18B
:104C600001FA02F29B1A0CAA42F82030C6F1170290
:104C700043FA02F5002D8A4400F3EB800022002362
:104C800040464946FCF7C4F8002800F04982029BE0
:104C9000059A93420CDD00220CA901EB830353F823
:104CA000041DBB4242EA0102F9D1002A40F0F18022
:104CB000059B0CAA013B52F82330002B40F0DD800D
:104CC0000123099A52F8041D01330029FAD0029AEF
:104CD000134402F10108089A029908EB020A0AF14A
:104CE000804AA39A0AF1FF3A02EB8A0A0A9A20A89C
:104CF0000A4400EBC20970AA02EBC10202920696B6
:104D0000009307975AF8040FFBF754FB039BE9E85D
:104D10000201002B20DB4F4600240025049E77E98A
:104D20000223F6E90201FBF7F3FE02460B4620469A
:104D30002946FBF7F3F95E4504460D46EFD1029B89
:104D400008F10108E3E902450293009B9845D9DD8B
:104D5000DDE9066702931AE700240025EFE700BFAC
:104D6000C0560008ABAAAA2A0000703E000070419D
:104D70000000204064D1029B0CAA013B52F8235052
:104D8000ED15002D7FF77AAF029B0AF1010A002B87
:104D900040F3518200216FF07F4C0C46CDE9008931
:104DA000DDF808E00CA80FE001318E4542F8049CC4
:104DB0006BDD136808300131ACEB03038E454FF017
:104DC000010440F8043C0BDD024652F8043BACBB46
:104DD000C3F18079002BE7D101318E451046F3DC19
:104DE000DDE90089002E0DDD012E3BD0022E09D118
:104DF000029B0CA95A1E0CAB53F82230C3F31503C7
:104E000041F82230022D7FF439AF42464B46002054
:104E1000B249FBF781F980468946002C3FF42EAF5A
:104E200032460020AD4900F037FA02460B464046B4
:104E30004946FBF771F9804689461FE71046BAE7F5
:104E40000022A74BFCF702F8002840F04F810546EE
:104E500014E7029B0AF1010A002BD8BF002499DC59
:104E6000012EC3D1029B0CA95A1E0CAB53F8223061
:104E7000C3F3160341F82230C4E7029B03F1010893
:104E8000434628E70024002566E60124DDE9008981
:104E9000A8E7029A0CAB541E53F824300495CDF8C1
:104EA00018A0183E5BB902F18043013B0CAA02EB4B
:104EB000830353F8042D013C183E002AF9D03246F2
:104EC0000020864900F0E8F9002C06460F46C0F2A3
:104ED000B88104F1010A4FEACA024FF00008934674
:104EE0000CAB03EB8A05DFF8FC9170AB03EBCA0A4D
:104EF00055F8040DFBF75EFA32463B46FBF708FE19
:104F00004B466AE90201424630463946FBF700FE4D
:104F10000CAB9D4206460F46EAD15A464FF00009B7
:104F2000ABF1080348A970A800EB030AA3460B469F
:104F3000CDE907425246CA46DDF814900391B9F113
:104F4000000FC0F2EA809046002600240025664F3C
:104F50000292009301E0564510DCF7E90223F8E8DD
:104F60000201FBF7D5FD02460B4620462946FBF71A
:104F7000D5F80136B14504460D46ECDA029A009B9D
:104F80000BF1FF3BBBF1FF3FE3E802450AF1010AE9
:104F9000A2F10802D3D1DDE90742A29B022B1CDC5F
:104FA000002B00F3ED8011D100200021039DAC18EF
:104FB00074E90223FBF7B2F8AC42F9D1049B13B1B8
:104FC00001F1004319460B9BC3E90001069B03F066
:104FD00007000DF5197DBDE8F08FA29B032BF5D1DD
:104FE000002C00F03E81039B4FEAC40803EBC4058C
:104FF000A946D5E9006702950094059559E902454F
:105000003046394622462B46FBF788F8B246BB4667
:1050100006460F4632463B4620462946FBF77CF8BB
:105020005B465246FBF77AF8C9E9000169E9026775
:10503000039B9945E2D1009C059D012C00F0118154
:10504000D5E90045039BDDF8089003F1080BCDF886
:105050000880D84659E902672046294632463B4631
:10506000FBF75CF8A246AB4604460D4622462B46AB
:1050700030463946FBF750F852465B46FBF74EF890
:10508000C9E9000169E90245C845E3D100200021D2
:10509000DDF80880039B08F108041C4403F11005A7
:1050A00074E90223FBF73AF8A542F9D1DDE9485645
:1050B000039BD3E90278049B002B40F089800B9B73
:1050C000C3E90401C3E90056C3E90278069B03F073
:1050D00007000DF5197DBDE8F08F00BF0000F03F1F
:1050E0000000E03F0000703E78560008029B0AF185
:1050F000010A002BC8BF02253FF74CAE42464B4683
:10510000022500206149FBF707F880468946B5E58E
:1051100000216FF017030891BEE4002400252FE75B
:105120004046494672420495CDF818A000F0B4F804
:105130000022574B80468946FBF788FE00283DD069
:105140000022544B40464946FBF7E2FCFBF792FE37
:105150000546FBF72FF900224D4BFBF7D9FC0B4618
:10516000024649464046FAF7D7FFFBF783FE029F07
:105170000CAB7C1C43F82700183643F824509EE6FD
:10518000039B0026002798469D18304675E90223A8
:105190003946FAF7C3FF454506460F46F5D10B469B
:1051A0000246DDE94801FAF7B7FF049B33B30B9DD4
:1051B00007F10042C5E9006224BB2FE040464946A2
:1051C000FBF758FE029B0CAA1C4642F8230076E629
:1051D0000B9B2C4606F100455D601D461C6008F1E6
:1051E0000043C5E90273069B01F10042C5E90402D0
:1051F00003F007000DF5197DBDE8F08F0B9BC3E9A7
:10520000006774B10125DDF80C800135F8E902234F
:10521000FAF784FFAC42F8DA049B13B101F10043C2
:1052200019460B9BC3E90201069B03F007000DF52D
:10523000197DBDE8F08F022D7FF420AD02460B46AC
:105240005FE7A29B022B06DC002B0DDC7FF4BEAED9
:1052500000200021B2E6A29B032B7FF4B7AE48AB3F
:1052600003930020002121E7049BDDE9480133B1CD
:1052700000224FF000430B9CC4E90023CEE700223C
:1052800000230B9CC4E90023CBE700BF0000F03FE4
:10529000000070410000703E2DE9F0411646C1F358
:1052A0000A52074688460B466ABB21F00043034377
:1052B00027D0354B0022FBF72BFC344B07469E4290
:1052C000884640DB0B46C1F30A52363A4CF2503165
:1052D0008E4221DC164440F2FE7296421CDC002E07
:1052E00028DC16F1350F35DB23F0FF4121F4E00116
:1052F000363641EA0655002238462946244BFBF74C
:1053000007FCBDE8F08140F2FF7C6245DED1024639
:10531000FAF704FFBDE8F08117A3D3E900231C4688
:105320004FEAD87565F3DF7421461A48FBF7F0FBA6
:10533000BDE8F08123F0FF4323F4E003384643EA5D
:105340000651BDE8F0810EA3D3E90023FBF7E0FB93
:10535000BDE8F08108F0004444F0D27141F4B73167
:1053600007A3D3E900230C4841F01F01FBF7D0FB52
:10537000C7E700BFAFF300809C7500883CE4377E30
:1053800059F3F8C21F6EA50100005043B03CFFFF67
:105390000000903C9C75008859F3F8C200000000A2
:1053A000C1F30A5C2DE9F041ACF2FF35132D024642
:1053B0000B460C46064632DC002D20DBDFF8E08091
:1053C0000F4648FA05F801EA080C5CEA000C2BD0FD
:1053D00031A3D3E90023FAF7A1FE00220023FBF753
:1053E0003FFD40B1002C03DA4FF480132B411F44E2
:1053F000002627EA080421463046BDE8F08126A3AE
:10540000D3E90023FAF78AFE00220023FBF728FDE8
:105410000028F0D0002C27DB00263446EBE7332DA4
:1054200006DDB5F5806F1CD010461946BDE8F08149
:105430004FF0FF37ACF2134C27FA0CF70742F3D0CA
:1054400015A3D3E90023FAF769FE00220023FBF736
:1054500007FD0028CFD0002C33460CDB23EA0706DB
:10546000C9E7FAF75BFEE1E724F0004426430DD1DB
:105470004FF00044BFE7142D06D00122C5F13405DA
:10548000AA401344B342E9D20134E7E70026054CB1
:10549000B1E700BFAFF300809C7500883CE4377E25
:1054A000FFFF0F000000F0BFF8B500BFF8BC08BC5C
:1054B0009E467047F8B500BFF8BC08BC9E467047D2
:1054C00000080000000800000000000001020304C2
:1054D00000000000000000000102030406070809A4
:1054E0000102000002030405060708090A0B0C0D5F
:1054F0000E0F1010FB21F93FFB2109407CD912400F
:10550000FB2119407A6A1F407CD92240BBFD25400F
:10551000FB2129403A462C407A6A2F405C473140B3
:105520007CD932409C6B3440BBFD3540DB8F37402B
:10553000FB2139401BB43A403A463C405AD83D40E2
:105540007A6A3F404C7E40405C4741406C1042408C
:105550007CD942408CA243409C6B4440AC344540D3
:10556000BBFD4540CBC64640DB8F4740EB5848402B
:10557000FB21494083F9A200444E6E00FC2915002E
:10558000D1572700DD34F50062DBC0003C9995005F
:10559000419043006351FE00BBDEAB00B761C50024
:1055A0003A6E2400D24D42004906E00009EA2E007E
:1055B0001C92D100EB1DFE0029B11C00E83EA700A3
:1055C000F535820044BB2E009CE98400B4267000AF
:1055D000417E5F00D6913900538339009CF4390035
:1055E0008B5F840028F9BD00F81F3B00DEFF9700A9
:1055F0000F980500112FEF000A5A8B006D1F6D00E8
:10560000CF7E360009CB2700464FB7009E663F008D
:105610002DEA5F00BA277500E5EBC7003D7BF1007E
:10562000F739070092528A00FB6BEA001FB15F0056
:10563000085D8D00300356007BFC4600F0AB6B002C
:1056400020BCCF0036F49A00E3A91D005E619100F2
:10565000081BE60085996500A0145F008D40680076
:1056600080D8FF0027734D0006063100CA5615008A
:10567000C9A873007BE260006B8CC00000000000D2
:1056800000000040FB21F93F000000002D44743E63
:10569000000000809846F83C0000006051CC783B48
:1056A00000000080831BF0390000004020257A387C
:1056B000000000802282E336000000001DF36935FF
:1056C00002000000030000000400000006000000CB
:0856D000954000082D0F0008B1
:0456D800050F0008B2
:1056DC000024F40001000000100000005002002023
:040000050800166970
:00000001FF
